{
  "_format": "hh-sol-artifact-1",
  "contractName": "Decentratwitter",
  "sourceName": "contracts/Decentratwitter.sol",
  "abi": [
    {
      "inputs": [],
      "stateMutability": "nonpayable",
      "type": "constructor"
    },
    {
      "anonymous": false,
      "inputs": [
        {
          "indexed": true,
          "internalType": "address",
          "name": "owner",
          "type": "address"
        },
        {
          "indexed": true,
          "internalType": "address",
          "name": "approved",
          "type": "address"
        },
        {
          "indexed": true,
          "internalType": "uint256",
          "name": "tokenId",
          "type": "uint256"
        }
      ],
      "name": "Approval",
      "type": "event"
    },
    {
      "anonymous": false,
      "inputs": [
        {
          "indexed": true,
          "internalType": "address",
          "name": "owner",
          "type": "address"
        },
        {
          "indexed": true,
          "internalType": "address",
          "name": "operator",
          "type": "address"
        },
        {
          "indexed": false,
          "internalType": "bool",
          "name": "approved",
          "type": "bool"
        }
      ],
      "name": "ApprovalForAll",
      "type": "event"
    },
    {
      "anonymous": false,
      "inputs": [
        {
          "indexed": false,
          "internalType": "uint256",
          "name": "id",
          "type": "uint256"
        },
        {
          "indexed": false,
          "internalType": "string",
          "name": "hash",
          "type": "string"
        },
        {
          "indexed": false,
          "internalType": "uint256",
          "name": "tipAmount",
          "type": "uint256"
        },
        {
          "indexed": false,
          "internalType": "address payable",
          "name": "author",
          "type": "address"
        }
      ],
      "name": "PostCreated",
      "type": "event"
    },
    {
      "anonymous": false,
      "inputs": [
        {
          "indexed": false,
          "internalType": "uint256",
          "name": "id",
          "type": "uint256"
        },
        {
          "indexed": false,
          "internalType": "string",
          "name": "hash",
          "type": "string"
        },
        {
          "indexed": false,
          "internalType": "uint256",
          "name": "tipAmount",
          "type": "uint256"
        },
        {
          "indexed": false,
          "internalType": "address payable",
          "name": "author",
          "type": "address"
        }
      ],
      "name": "PostTipped",
      "type": "event"
    },
    {
      "anonymous": false,
      "inputs": [
        {
          "indexed": true,
          "internalType": "address",
          "name": "from",
          "type": "address"
        },
        {
          "indexed": true,
          "internalType": "address",
          "name": "to",
          "type": "address"
        },
        {
          "indexed": true,
          "internalType": "uint256",
          "name": "tokenId",
          "type": "uint256"
        }
      ],
      "name": "Transfer",
      "type": "event"
    },
    {
      "inputs": [
        {
          "internalType": "address",
          "name": "to",
          "type": "address"
        },
        {
          "internalType": "uint256",
          "name": "tokenId",
          "type": "uint256"
        }
      ],
      "name": "approve",
      "outputs": [],
      "stateMutability": "nonpayable",
      "type": "function"
    },
    {
      "inputs": [
        {
          "internalType": "address",
          "name": "owner",
          "type": "address"
        }
      ],
      "name": "balanceOf",
      "outputs": [
        {
          "internalType": "uint256",
          "name": "",
          "type": "uint256"
        }
      ],
      "stateMutability": "view",
      "type": "function"
    },
    {
      "inputs": [],
      "name": "getAllPosts",
      "outputs": [
        {
          "components": [
            {
              "internalType": "uint256",
              "name": "id",
              "type": "uint256"
            },
            {
              "internalType": "string",
              "name": "hash",
              "type": "string"
            },
            {
              "internalType": "uint256",
              "name": "tipAmount",
              "type": "uint256"
            },
            {
              "internalType": "address payable",
              "name": "author",
              "type": "address"
            }
          ],
          "internalType": "struct Decentratwitter.Post[]",
          "name": "_posts",
          "type": "tuple[]"
        }
      ],
      "stateMutability": "view",
      "type": "function"
    },
    {
      "inputs": [
        {
          "internalType": "uint256",
          "name": "tokenId",
          "type": "uint256"
        }
      ],
      "name": "getApproved",
      "outputs": [
        {
          "internalType": "address",
          "name": "",
          "type": "address"
        }
      ],
      "stateMutability": "view",
      "type": "function"
    },
    {
      "inputs": [],
      "name": "getMyNfts",
      "outputs": [
        {
          "internalType": "uint256[]",
          "name": "_ids",
          "type": "uint256[]"
        }
      ],
      "stateMutability": "view",
      "type": "function"
    },
    {
      "inputs": [
        {
          "internalType": "address",
          "name": "owner",
          "type": "address"
        },
        {
          "internalType": "address",
          "name": "operator",
          "type": "address"
        }
      ],
      "name": "isApprovedForAll",
      "outputs": [
        {
          "internalType": "bool",
          "name": "",
          "type": "bool"
        }
      ],
      "stateMutability": "view",
      "type": "function"
    },
    {
      "inputs": [
        {
          "internalType": "string",
          "name": "_tokenURI",
          "type": "string"
        }
      ],
      "name": "mint",
      "outputs": [
        {
          "internalType": "uint256",
          "name": "",
          "type": "uint256"
        }
      ],
      "stateMutability": "nonpayable",
      "type": "function"
    },
    {
      "inputs": [],
      "name": "name",
      "outputs": [
        {
          "internalType": "string",
          "name": "",
          "type": "string"
        }
      ],
      "stateMutability": "view",
      "type": "function"
    },
    {
      "inputs": [
        {
          "internalType": "uint256",
          "name": "tokenId",
          "type": "uint256"
        }
      ],
      "name": "ownerOf",
      "outputs": [
        {
          "internalType": "address",
          "name": "",
          "type": "address"
        }
      ],
      "stateMutability": "view",
      "type": "function"
    },
    {
      "inputs": [],
      "name": "postCount",
      "outputs": [
        {
          "internalType": "uint256",
          "name": "",
          "type": "uint256"
        }
      ],
      "stateMutability": "view",
      "type": "function"
    },
    {
      "inputs": [
        {
          "internalType": "uint256",
          "name": "",
          "type": "uint256"
        }
      ],
      "name": "posts",
      "outputs": [
        {
          "internalType": "uint256",
          "name": "id",
          "type": "uint256"
        },
        {
          "internalType": "string",
          "name": "hash",
          "type": "string"
        },
        {
          "internalType": "uint256",
          "name": "tipAmount",
          "type": "uint256"
        },
        {
          "internalType": "address payable",
          "name": "author",
          "type": "address"
        }
      ],
      "stateMutability": "view",
      "type": "function"
    },
    {
      "inputs": [
        {
          "internalType": "address",
          "name": "",
          "type": "address"
        }
      ],
      "name": "profiles",
      "outputs": [
        {
          "internalType": "uint256",
          "name": "",
          "type": "uint256"
        }
      ],
      "stateMutability": "view",
      "type": "function"
    },
    {
      "inputs": [
        {
          "internalType": "address",
          "name": "from",
          "type": "address"
        },
        {
          "internalType": "address",
          "name": "to",
          "type": "address"
        },
        {
          "internalType": "uint256",
          "name": "tokenId",
          "type": "uint256"
        }
      ],
      "name": "safeTransferFrom",
      "outputs": [],
      "stateMutability": "nonpayable",
      "type": "function"
    },
    {
      "inputs": [
        {
          "internalType": "address",
          "name": "from",
          "type": "address"
        },
        {
          "internalType": "address",
          "name": "to",
          "type": "address"
        },
        {
          "internalType": "uint256",
          "name": "tokenId",
          "type": "uint256"
        },
        {
          "internalType": "bytes",
          "name": "data",
          "type": "bytes"
        }
      ],
      "name": "safeTransferFrom",
      "outputs": [],
      "stateMutability": "nonpayable",
      "type": "function"
    },
    {
      "inputs": [
        {
          "internalType": "address",
          "name": "operator",
          "type": "address"
        },
        {
          "internalType": "bool",
          "name": "approved",
          "type": "bool"
        }
      ],
      "name": "setApprovalForAll",
      "outputs": [],
      "stateMutability": "nonpayable",
      "type": "function"
    },
    {
      "inputs": [
        {
          "internalType": "uint256",
          "name": "_id",
          "type": "uint256"
        }
      ],
      "name": "setProfile",
      "outputs": [],
      "stateMutability": "nonpayable",
      "type": "function"
    },
    {
      "inputs": [
        {
          "internalType": "bytes4",
          "name": "interfaceId",
          "type": "bytes4"
        }
      ],
      "name": "supportsInterface",
      "outputs": [
        {
          "internalType": "bool",
          "name": "",
          "type": "bool"
        }
      ],
      "stateMutability": "view",
      "type": "function"
    },
    {
      "inputs": [],
      "name": "symbol",
      "outputs": [
        {
          "internalType": "string",
          "name": "",
          "type": "string"
        }
      ],
      "stateMutability": "view",
      "type": "function"
    },
    {
      "inputs": [
        {
          "internalType": "uint256",
          "name": "_id",
          "type": "uint256"
        }
      ],
      "name": "tipPostOwner",
      "outputs": [],
      "stateMutability": "payable",
      "type": "function"
    },
    {
      "inputs": [],
      "name": "tokenCount",
      "outputs": [
        {
          "internalType": "uint256",
          "name": "",
          "type": "uint256"
        }
      ],
      "stateMutability": "view",
      "type": "function"
    },
    {
      "inputs": [
        {
          "internalType": "uint256",
          "name": "tokenId",
          "type": "uint256"
        }
      ],
      "name": "tokenURI",
      "outputs": [
        {
          "internalType": "string",
          "name": "",
          "type": "string"
        }
      ],
      "stateMutability": "view",
      "type": "function"
    },
    {
      "inputs": [
        {
          "internalType": "address",
          "name": "from",
          "type": "address"
        },
        {
          "internalType": "address",
          "name": "to",
          "type": "address"
        },
        {
          "internalType": "uint256",
          "name": "tokenId",
          "type": "uint256"
        }
      ],
      "name": "transferFrom",
      "outputs": [],
      "stateMutability": "nonpayable",
      "type": "function"
    },
    {
      "inputs": [
        {
          "internalType": "string",
          "name": "_postHash",
          "type": "string"
        }
      ],
      "name": "uploadPost",
      "outputs": [],
      "stateMutability": "nonpayable",
      "type": "function"
    }
  ],
  "bytecode": "0x60806040523480156200001157600080fd5b506040518060400160405280600f81526020017f446563656e7472617477697474657200000000000000000000000000000000008152506040518060400160405280600481526020017f4441505000000000000000000000000000000000000000000000000000000000815250816000908051906020019062000096929190620000b8565b508060019080519060200190620000af929190620000b8565b505050620001cd565b828054620000c69062000168565b90600052602060002090601f016020900481019282620000ea576000855562000136565b82601f106200010557805160ff191683800117855562000136565b8280016001018555821562000136579182015b828111156200013557825182559160200191906001019062000118565b5b50905062000145919062000149565b5090565b5b80821115620001645760008160009055506001016200014a565b5090565b600060028204905060018216806200018157607f821691505b602082108114156200019857620001976200019e565b5b50919050565b7f4e487b7100000000000000000000000000000000000000000000000000000000600052602260045260246000fd5b613e4e80620001dd6000396000f3fe6080604052600436106101405760003560e01c806370a08231116100b6578063bbe156271161006f578063bbe1562714610471578063bdd05adb146104ae578063c87b56dd146104d7578063d6313c0614610514578063d85d3d2714610530578063e985e9c51461056d57610140565b806370a082311461036357806385d3cb37146103a057806395d89b41146103c95780639f181b5e146103f4578063a22cb4651461041f578063b88d4fde1461044857610140565b80630b1e7f83116101085780630b1e7f831461023e57806317906c2e1461027e57806323b872dd146102a957806330561100146102d257806342842e0e146102fd5780636352211e1461032657610140565b806301ffc9a714610145578063047b07bf1461018257806306fdde03146101ad578063081812fc146101d8578063095ea7b314610215575b600080fd5b34801561015157600080fd5b5061016c60048036038101906101679190612bf7565b6105aa565b604051610179919061327c565b60405180910390f35b34801561018e57600080fd5b5061019761068c565b6040516101a4919061325a565b60405180910390f35b3480156101b957600080fd5b506101c26107dc565b6040516101cf9190613297565b60405180910390f35b3480156101e457600080fd5b506101ff60048036038101906101fa9190612c8a565b61086e565b60405161020c91906131d1565b60405180910390f35b34801561022157600080fd5b5061023c60048036038101906102379190612bbb565b6108b4565b005b34801561024a57600080fd5b5061026560048036038101906102609190612c8a565b6109cc565b6040516102759493929190613540565b60405180910390f35b34801561028a57600080fd5b50610293610aa4565b6040516102a091906134d9565b60405180910390f35b3480156102b557600080fd5b506102d060048036038101906102cb9190612ab5565b610aaa565b005b3480156102de57600080fd5b506102e7610b0a565b6040516102f49190613238565b60405180910390f35b34801561030957600080fd5b50610324600480360381019061031f9190612ab5565b610d17565b005b34801561033257600080fd5b5061034d60048036038101906103489190612c8a565b610d37565b60405161035a91906131d1565b60405180910390f35b34801561036f57600080fd5b5061038a60048036038101906103859190612a50565b610dbe565b60405161039791906134d9565b60405180910390f35b3480156103ac57600080fd5b506103c760048036038101906103c29190612c8a565b610e76565b005b3480156103d557600080fd5b506103de610f33565b6040516103eb9190613297565b60405180910390f35b34801561040057600080fd5b50610409610fc5565b60405161041691906134d9565b60405180910390f35b34801561042b57600080fd5b5061044660048036038101906104419190612b7f565b610fcb565b005b34801561045457600080fd5b5061046f600480360381019061046a9190612b04565b610fe1565b005b34801561047d57600080fd5b5061049860048036038101906104939190612a50565b611043565b6040516104a591906134d9565b60405180910390f35b3480156104ba57600080fd5b506104d560048036038101906104d09190612c49565b61105b565b005b3480156104e357600080fd5b506104fe60048036038101906104f99190612c8a565b61120f565b60405161050b9190613297565b60405180910390f35b61052e60048036038101906105299190612c8a565b611322565b005b34801561053c57600080fd5b5061055760048036038101906105529190612c49565b611644565b60405161056491906134d9565b60405180910390f35b34801561057957600080fd5b50610594600480360381019061058f9190612a79565b61168b565b6040516105a1919061327c565b60405180910390f35b60007f80ac58cd000000000000000000000000000000000000000000000000000000007bffffffffffffffffffffffffffffffffffffffffffffffffffffffff1916827bffffffffffffffffffffffffffffffffffffffffffffffffffffffff1916148061067557507f5b5e139f000000000000000000000000000000000000000000000000000000007bffffffffffffffffffffffffffffffffffffffffffffffffffffffff1916827bffffffffffffffffffffffffffffffffffffffffffffffffffffffff1916145b8061068557506106848261171f565b5b9050919050565b606061069733610dbe565b67ffffffffffffffff8111156106d6577f4e487b7100000000000000000000000000000000000000000000000000000000600052604160045260246000fd5b6040519080825280602002602001820160405280156107045781602001602082028036833780820191505090505b509050600080600754905060005b818110156107d6573373ffffffffffffffffffffffffffffffffffffffff1661074660018361074191906136d9565b610d37565b73ffffffffffffffffffffffffffffffffffffffff1614156107c35760018161076f91906136d9565b8484815181106107a8577f4e487b7100000000000000000000000000000000000000000000000000000000600052603260045260246000fd5b60200260200101818152505082806107bf906138a0565b9350505b80806107ce906138a0565b915050610712565b50505090565b6060600080546107eb9061383d565b80601f01602080910402602001604051908101604052809291908181526020018280546108179061383d565b80156108645780601f1061083957610100808354040283529160200191610864565b820191906000526020600020905b81548152906001019060200180831161084757829003601f168201915b5050505050905090565b600061087982611789565b6004600083815260200190815260200160002060009054906101000a900473ffffffffffffffffffffffffffffffffffffffff169050919050565b60006108bf82610d37565b90508073ffffffffffffffffffffffffffffffffffffffff168373ffffffffffffffffffffffffffffffffffffffff161415610930576040517f08c379a000000000000000000000000000000000000000000000000000000000815260040161092790613439565b60405180910390fd5b8073ffffffffffffffffffffffffffffffffffffffff1661094f6117d4565b73ffffffffffffffffffffffffffffffffffffffff16148061097e575061097d816109786117d4565b61168b565b5b6109bd576040517f08c379a00000000000000000000000000000000000000000000000000000000081526004016109b490613499565b60405180910390fd5b6109c783836117dc565b505050565b60096020528060005260406000206000915090508060000154908060010180546109f59061383d565b80601f0160208091040260200160405190810160405280929190818152602001828054610a219061383d565b8015610a6e5780601f10610a4357610100808354040283529160200191610a6e565b820191906000526020600020905b815481529060010190602001808311610a5157829003601f168201915b5050505050908060020154908060030160009054906101000a900473ffffffffffffffffffffffffffffffffffffffff16905084565b60085481565b610abb610ab56117d4565b82611895565b610afa576040517f08c379a0000000000000000000000000000000000000000000000000000000008152600401610af1906132b9565b60405180910390fd5b610b0583838361192a565b505050565b606060085467ffffffffffffffff811115610b4e577f4e487b7100000000000000000000000000000000000000000000000000000000600052604160045260246000fd5b604051908082528060200260200182016040528015610b8757816020015b610b74612836565b815260200190600190039081610b6c5790505b50905060005b8151811015610d135760096000600183610ba791906136d9565b815260200190815260200160002060405180608001604052908160008201548152602001600182018054610bda9061383d565b80601f0160208091040260200160405190810160405280929190818152602001828054610c069061383d565b8015610c535780601f10610c2857610100808354040283529160200191610c53565b820191906000526020600020905b815481529060010190602001808311610c3657829003601f168201915b50505050508152602001600282015481526020016003820160009054906101000a900473ffffffffffffffffffffffffffffffffffffffff1673ffffffffffffffffffffffffffffffffffffffff1673ffffffffffffffffffffffffffffffffffffffff1681525050828281518110610cf5577f4e487b7100000000000000000000000000000000000000000000000000000000600052603260045260246000fd5b60200260200101819052508080610d0b906138a0565b915050610b8d565b5090565b610d3283838360405180602001604052806000815250610fe1565b505050565b600080610d4383611c24565b9050600073ffffffffffffffffffffffffffffffffffffffff168173ffffffffffffffffffffffffffffffffffffffff161415610db5576040517f08c379a0000000000000000000000000000000000000000000000000000000008152600401610dac90613419565b60405180910390fd5b80915050919050565b60008073ffffffffffffffffffffffffffffffffffffffff168273ffffffffffffffffffffffffffffffffffffffff161415610e2f576040517f08c379a0000000000000000000000000000000000000000000000000000000008152600401610e2690613379565b60405180910390fd5b600360008373ffffffffffffffffffffffffffffffffffffffff1673ffffffffffffffffffffffffffffffffffffffff168152602001908152602001600020549050919050565b3373ffffffffffffffffffffffffffffffffffffffff16610e9682610d37565b73ffffffffffffffffffffffffffffffffffffffff1614610eec576040517f08c379a0000000000000000000000000000000000000000000000000000000008152600401610ee390613459565b60405180910390fd5b80600a60003373ffffffffffffffffffffffffffffffffffffffff1673ffffffffffffffffffffffffffffffffffffffff1681526020019081526020016000208190555050565b606060018054610f429061383d565b80601f0160208091040260200160405190810160405280929190818152602001828054610f6e9061383d565b8015610fbb5780601f10610f9057610100808354040283529160200191610fbb565b820191906000526020600020905b815481529060010190602001808311610f9e57829003601f168201915b5050505050905090565b60075481565b610fdd610fd66117d4565b8383611c61565b5050565b610ff2610fec6117d4565b83611895565b611031576040517f08c379a0000000000000000000000000000000000000000000000000000000008152600401611028906132b9565b60405180910390fd5b61103d84848484611dce565b50505050565b600a6020528060005260406000206000915090505481565b600061106633610dbe565b116110a6576040517f08c379a000000000000000000000000000000000000000000000000000000000815260040161109d906134b9565b60405180910390fd5b60008151116110ea576040517f08c379a00000000000000000000000000000000000000000000000000000000081526004016110e1906133f9565b60405180910390fd5b600860008154809291906110fd906138a0565b919050555060405180608001604052806008548152602001828152602001600081526020013373ffffffffffffffffffffffffffffffffffffffff16815250600960006008548152602001908152602001600020600082015181600001556020820151816001019080519060200190611177929190612874565b506040820151816002015560608201518160030160006101000a81548173ffffffffffffffffffffffffffffffffffffffff021916908373ffffffffffffffffffffffffffffffffffffffff1602179055509050507fc66336337a24e513f909b3b25119854dba8385d51307dbc7d31d1b2805e19c7e6008548260003360405161120494939291906134f4565b60405180910390a150565b606061121a82611789565b600060066000848152602001908152602001600020805461123a9061383d565b80601f01602080910402602001604051908101604052809291908181526020018280546112669061383d565b80156112b35780601f10611288576101008083540402835291602001916112b3565b820191906000526020600020905b81548152906001019060200180831161129657829003601f168201915b5050505050905060006112c4611e2a565b90506000815114156112da57819250505061131d565b60008251111561130f5780826040516020016112f79291906131ad565b6040516020818303038152906040529250505061131d565b61131884611e41565b925050505b919050565b60008111801561133457506008548111155b611373576040517f08c379a000000000000000000000000000000000000000000000000000000000815260040161136a906133b9565b60405180910390fd5b600060096000838152602001908152602001600020604051806080016040529081600082015481526020016001820180546113ad9061383d565b80601f01602080910402602001604051908101604052809291908181526020018280546113d99061383d565b80156114265780601f106113fb57610100808354040283529160200191611426565b820191906000526020600020905b81548152906001019060200180831161140957829003601f168201915b50505050508152602001600282015481526020016003820160009054906101000a900473ffffffffffffffffffffffffffffffffffffffff1673ffffffffffffffffffffffffffffffffffffffff1673ffffffffffffffffffffffffffffffffffffffff168152505090503373ffffffffffffffffffffffffffffffffffffffff16816060015173ffffffffffffffffffffffffffffffffffffffff161415611504576040517f08c379a00000000000000000000000000000000000000000000000000000000081526004016114fb90613479565b60405180910390fd5b806060015173ffffffffffffffffffffffffffffffffffffffff166108fc349081150290604051600060405180830381858888f1935050505015801561154e573d6000803e3d6000fd5b50348160400181815161156191906136d9565b9150818152505080600960008481526020019081526020016000206000820151816000015560208201518160010190805190602001906115a2929190612874565b506040820151816002015560608201518160030160006101000a81548173ffffffffffffffffffffffffffffffffffffffff021916908373ffffffffffffffffffffffffffffffffffffffff1602179055509050507f20988fe475351e75813672abada1dddb7ac67cbbeb81e61e1160b8329d8cdf1c828260200151836040015184606001516040516116389493929190613540565b60405180910390a15050565b600060076000815480929190611659906138a0565b919050555061166a33600754611ea9565b61167660075483611ec7565b611681600754610e76565b6007549050919050565b6000600560008473ffffffffffffffffffffffffffffffffffffffff1673ffffffffffffffffffffffffffffffffffffffff16815260200190815260200160002060008373ffffffffffffffffffffffffffffffffffffffff1673ffffffffffffffffffffffffffffffffffffffff16815260200190815260200160002060009054906101000a900460ff16905092915050565b60007f01ffc9a7000000000000000000000000000000000000000000000000000000007bffffffffffffffffffffffffffffffffffffffffffffffffffffffff1916827bffffffffffffffffffffffffffffffffffffffffffffffffffffffff1916149050919050565b61179281611f3b565b6117d1576040517f08c379a00000000000000000000000000000000000000000000000000000000081526004016117c890613419565b60405180910390fd5b50565b600033905090565b816004600083815260200190815260200160002060006101000a81548173ffffffffffffffffffffffffffffffffffffffff021916908373ffffffffffffffffffffffffffffffffffffffff160217905550808273ffffffffffffffffffffffffffffffffffffffff1661184f83610d37565b73ffffffffffffffffffffffffffffffffffffffff167f8c5be1e5ebec7d5bd14f71427d1e84f3dd0314c0f7b2291e5b200ac8c7c3b92560405160405180910390a45050565b6000806118a183610d37565b90508073ffffffffffffffffffffffffffffffffffffffff168473ffffffffffffffffffffffffffffffffffffffff1614806118e357506118e2818561168b565b5b8061192157508373ffffffffffffffffffffffffffffffffffffffff166119098461086e565b73ffffffffffffffffffffffffffffffffffffffff16145b91505092915050565b8273ffffffffffffffffffffffffffffffffffffffff1661194a82610d37565b73ffffffffffffffffffffffffffffffffffffffff16146119a0576040517f08c379a0000000000000000000000000000000000000000000000000000000008152600401611997906132f9565b60405180910390fd5b600073ffffffffffffffffffffffffffffffffffffffff168273ffffffffffffffffffffffffffffffffffffffff161415611a10576040517f08c379a0000000000000000000000000000000000000000000000000000000008152600401611a0790613339565b60405180910390fd5b611a1d8383836001611f7c565b8273ffffffffffffffffffffffffffffffffffffffff16611a3d82610d37565b73ffffffffffffffffffffffffffffffffffffffff1614611a93576040517f08c379a0000000000000000000000000000000000000000000000000000000008152600401611a8a906132f9565b60405180910390fd5b6004600082815260200190815260200160002060006101000a81549073ffffffffffffffffffffffffffffffffffffffff02191690556001600360008573ffffffffffffffffffffffffffffffffffffffff1673ffffffffffffffffffffffffffffffffffffffff168152602001908152602001600020600082825403925050819055506001600360008473ffffffffffffffffffffffffffffffffffffffff1673ffffffffffffffffffffffffffffffffffffffff16815260200190815260200160002060008282540192505081905550816002600083815260200190815260200160002060006101000a81548173ffffffffffffffffffffffffffffffffffffffff021916908373ffffffffffffffffffffffffffffffffffffffff160217905550808273ffffffffffffffffffffffffffffffffffffffff168473ffffffffffffffffffffffffffffffffffffffff167fddf252ad1be2c89b69c2b068fc378daa952ba7f163c4a11628f55a4df523b3ef60405160405180910390a4611c1f83838360016120a2565b505050565b60006002600083815260200190815260200160002060009054906101000a900473ffffffffffffffffffffffffffffffffffffffff169050919050565b8173ffffffffffffffffffffffffffffffffffffffff168373ffffffffffffffffffffffffffffffffffffffff161415611cd0576040517f08c379a0000000000000000000000000000000000000000000000000000000008152600401611cc790613359565b60405180910390fd5b80600560008573ffffffffffffffffffffffffffffffffffffffff1673ffffffffffffffffffffffffffffffffffffffff16815260200190815260200160002060008473ffffffffffffffffffffffffffffffffffffffff1673ffffffffffffffffffffffffffffffffffffffff16815260200190815260200160002060006101000a81548160ff0219169083151502179055508173ffffffffffffffffffffffffffffffffffffffff168373ffffffffffffffffffffffffffffffffffffffff167f17307eab39ab6107e8899845ad3d59bd9653f200f220920489ca2b5937696c3183604051611dc1919061327c565b60405180910390a3505050565b611dd984848461192a565b611de5848484846120a8565b611e24576040517f08c379a0000000000000000000000000000000000000000000000000000000008152600401611e1b906132d9565b60405180910390fd5b50505050565b606060405180602001604052806000815250905090565b6060611e4c82611789565b6000611e56611e2a565b90506000815111611e765760405180602001604052806000815250611ea1565b80611e808461223f565b604051602001611e919291906131ad565b6040516020818303038152906040525b915050919050565b611ec3828260405180602001604052806000815250612363565b5050565b611ed082611f3b565b611f0f576040517f08c379a0000000000000000000000000000000000000000000000000000000008152600401611f0690613399565b60405180910390fd5b80600660008481526020019081526020016000209080519060200190611f36929190612874565b505050565b60008073ffffffffffffffffffffffffffffffffffffffff16611f5d83611c24565b73ffffffffffffffffffffffffffffffffffffffff1614159050919050565b600181111561209c57600073ffffffffffffffffffffffffffffffffffffffff168473ffffffffffffffffffffffffffffffffffffffff16146120105780600360008673ffffffffffffffffffffffffffffffffffffffff1673ffffffffffffffffffffffffffffffffffffffff1681526020019081526020016000206000828254612008919061372f565b925050819055505b600073ffffffffffffffffffffffffffffffffffffffff168373ffffffffffffffffffffffffffffffffffffffff161461209b5780600360008573ffffffffffffffffffffffffffffffffffffffff1673ffffffffffffffffffffffffffffffffffffffff168152602001908152602001600020600082825461209391906136d9565b925050819055505b5b50505050565b50505050565b60006120c98473ffffffffffffffffffffffffffffffffffffffff166123be565b15612232578373ffffffffffffffffffffffffffffffffffffffff1663150b7a026120f26117d4565b8786866040518563ffffffff1660e01b815260040161211494939291906131ec565b602060405180830381600087803b15801561212e57600080fd5b505af192505050801561215f57506040513d601f19601f8201168201806040525081019061215c9190612c20565b60015b6121e2573d806000811461218f576040519150601f19603f3d011682016040523d82523d6000602084013e612194565b606091505b506000815114156121da576040517f08c379a00000000000000000000000000000000000000000000000000000000081526004016121d1906132d9565b60405180910390fd5b805181602001fd5b63150b7a0260e01b7bffffffffffffffffffffffffffffffffffffffffffffffffffffffff1916817bffffffffffffffffffffffffffffffffffffffffffffffffffffffff191614915050612237565b600190505b949350505050565b60606000600161224e846123e1565b01905060008167ffffffffffffffff811115612293577f4e487b7100000000000000000000000000000000000000000000000000000000600052604160045260246000fd5b6040519080825280601f01601f1916602001820160405280156122c55781602001600182028036833780820191505090505b509050600082602001820190505b600115612358578080600190039150507f3031323334353637383961626364656600000000000000000000000000000000600a86061a8153600a8581612342577f4e487b7100000000000000000000000000000000000000000000000000000000600052601260045260246000fd5b049450600085141561235357612358565b6122d3565b819350505050919050565b61236d8383612618565b61237a60008484846120a8565b6123b9576040517f08c379a00000000000000000000000000000000000000000000000000000000081526004016123b0906132d9565b60405180910390fd5b505050565b6000808273ffffffffffffffffffffffffffffffffffffffff163b119050919050565b600080600090507a184f03e93ff9f4daa797ed6e38ed64bf6a1f0100000000000000008310612465577a184f03e93ff9f4daa797ed6e38ed64bf6a1f010000000000000000838161245b577f4e487b7100000000000000000000000000000000000000000000000000000000600052601260045260246000fd5b0492506040810190505b6d04ee2d6d415b85acef810000000083106124c8576d04ee2d6d415b85acef810000000083816124be577f4e487b7100000000000000000000000000000000000000000000000000000000600052601260045260246000fd5b0492506020810190505b662386f26fc10000831061251d57662386f26fc100008381612513577f4e487b7100000000000000000000000000000000000000000000000000000000600052601260045260246000fd5b0492506010810190505b6305f5e100831061256c576305f5e1008381612562577f4e487b7100000000000000000000000000000000000000000000000000000000600052601260045260246000fd5b0492506008810190505b61271083106125b75761271083816125ad577f4e487b7100000000000000000000000000000000000000000000000000000000600052601260045260246000fd5b0492506004810190505b6064831061260057606483816125f6577f4e487b7100000000000000000000000000000000000000000000000000000000600052601260045260246000fd5b0492506002810190505b600a831061260f576001810190505b80915050919050565b600073ffffffffffffffffffffffffffffffffffffffff168273ffffffffffffffffffffffffffffffffffffffff161415612688576040517f08c379a000000000000000000000000000000000000000000000000000000000815260040161267f906133d9565b60405180910390fd5b61269181611f3b565b156126d1576040517f08c379a00000000000000000000000000000000000000000000000000000000081526004016126c890613319565b60405180910390fd5b6126df600083836001611f7c565b6126e881611f3b565b15612728576040517f08c379a000000000000000000000000000000000000000000000000000000000815260040161271f90613319565b60405180910390fd5b6001600360008473ffffffffffffffffffffffffffffffffffffffff1673ffffffffffffffffffffffffffffffffffffffff16815260200190815260200160002060008282540192505081905550816002600083815260200190815260200160002060006101000a81548173ffffffffffffffffffffffffffffffffffffffff021916908373ffffffffffffffffffffffffffffffffffffffff160217905550808273ffffffffffffffffffffffffffffffffffffffff16600073ffffffffffffffffffffffffffffffffffffffff167fddf252ad1be2c89b69c2b068fc378daa952ba7f163c4a11628f55a4df523b3ef60405160405180910390a46128326000838360016120a2565b5050565b6040518060800160405280600081526020016060815260200160008152602001600073ffffffffffffffffffffffffffffffffffffffff1681525090565b8280546128809061383d565b90600052602060002090601f0160209004810192826128a257600085556128e9565b82601f106128bb57805160ff19168380011785556128e9565b828001600101855582156128e9579182015b828111156128e85782518255916020019190600101906128cd565b5b5090506128f691906128fa565b5090565b5b808211156129135760008160009055506001016128fb565b5090565b600061292a612925846135b1565b61358c565b90508281526020810184848401111561294257600080fd5b61294d8482856137fb565b509392505050565b6000612968612963846135e2565b61358c565b90508281526020810184848401111561298057600080fd5b61298b8482856137fb565b509392505050565b6000813590506129a281613dbc565b92915050565b6000813590506129b781613dd3565b92915050565b6000813590506129cc81613dea565b92915050565b6000815190506129e181613dea565b92915050565b600082601f8301126129f857600080fd5b8135612a08848260208601612917565b91505092915050565b600082601f830112612a2257600080fd5b8135612a32848260208601612955565b91505092915050565b600081359050612a4a81613e01565b92915050565b600060208284031215612a6257600080fd5b6000612a7084828501612993565b91505092915050565b60008060408385031215612a8c57600080fd5b6000612a9a85828601612993565b9250506020612aab85828601612993565b9150509250929050565b600080600060608486031215612aca57600080fd5b6000612ad886828701612993565b9350506020612ae986828701612993565b9250506040612afa86828701612a3b565b9150509250925092565b60008060008060808587031215612b1a57600080fd5b6000612b2887828801612993565b9450506020612b3987828801612993565b9350506040612b4a87828801612a3b565b925050606085013567ffffffffffffffff811115612b6757600080fd5b612b73878288016129e7565b91505092959194509250565b60008060408385031215612b9257600080fd5b6000612ba085828601612993565b9250506020612bb1858286016129a8565b9150509250929050565b60008060408385031215612bce57600080fd5b6000612bdc85828601612993565b9250506020612bed85828601612a3b565b9150509250929050565b600060208284031215612c0957600080fd5b6000612c17848285016129bd565b91505092915050565b600060208284031215612c3257600080fd5b6000612c40848285016129d2565b91505092915050565b600060208284031215612c5b57600080fd5b600082013567ffffffffffffffff811115612c7557600080fd5b612c8184828501612a11565b91505092915050565b600060208284031215612c9c57600080fd5b6000612caa84828501612a3b565b91505092915050565b6000612cbf838361312c565b905092915050565b6000612cd3838361318f565b60208301905092915050565b612ce881613775565b82525050565b612cf781613775565b82525050565b612d0681613763565b82525050565b6000612d1782613633565b612d218185613679565b935083602082028501612d3385613613565b8060005b85811015612d6f5784840389528151612d508582612cb3565b9450612d5b8361365f565b925060208a01995050600181019050612d37565b50829750879550505050505092915050565b6000612d8c8261363e565b612d96818561368a565b9350612da183613623565b8060005b83811015612dd2578151612db98882612cc7565b9750612dc48361366c565b925050600181019050612da5565b5085935050505092915050565b612de881613787565b82525050565b6000612df982613649565b612e03818561369b565b9350612e1381856020860161380a565b612e1c81613976565b840191505092915050565b612e30816137e9565b82525050565b6000612e4182613654565b612e4b81856136ac565b9350612e5b81856020860161380a565b612e6481613976565b840191505092915050565b6000612e7a82613654565b612e8481856136bd565b9350612e9481856020860161380a565b612e9d81613976565b840191505092915050565b6000612eb382613654565b612ebd81856136ce565b9350612ecd81856020860161380a565b80840191505092915050565b6000612ee6602d836136bd565b9150612ef182613987565b604082019050919050565b6000612f096032836136bd565b9150612f14826139d6565b604082019050919050565b6000612f2c6025836136bd565b9150612f3782613a25565b604082019050919050565b6000612f4f601c836136bd565b9150612f5a82613a74565b602082019050919050565b6000612f726024836136bd565b9150612f7d82613a9d565b604082019050919050565b6000612f956019836136bd565b9150612fa082613aec565b602082019050919050565b6000612fb86029836136bd565b9150612fc382613b15565b604082019050919050565b6000612fdb602e836136bd565b9150612fe682613b64565b604082019050919050565b6000612ffe600f836136bd565b915061300982613bb3565b602082019050919050565b60006130216020836136bd565b915061302c82613bdc565b602082019050919050565b60006130446019836136bd565b915061304f82613c05565b602082019050919050565b60006130676018836136bd565b915061307282613c2e565b602082019050919050565b600061308a6021836136bd565b915061309582613c57565b604082019050919050565b60006130ad6033836136bd565b91506130b882613ca6565b604082019050919050565b60006130d06018836136bd565b91506130db82613cf5565b602082019050919050565b60006130f3603d836136bd565b91506130fe82613d1e565b604082019050919050565b60006131166026836136bd565b915061312182613d6d565b604082019050919050565b6000608083016000830151613144600086018261318f565b506020830151848203602086015261315c8282612e36565b9150506040830151613171604086018261318f565b5060608301516131846060860182612cdf565b508091505092915050565b613198816137df565b82525050565b6131a7816137df565b82525050565b60006131b98285612ea8565b91506131c58284612ea8565b91508190509392505050565b60006020820190506131e66000830184612cfd565b92915050565b60006080820190506132016000830187612cfd565b61320e6020830186612cfd565b61321b604083018561319e565b818103606083015261322d8184612dee565b905095945050505050565b600060208201905081810360008301526132528184612d0c565b905092915050565b600060208201905081810360008301526132748184612d81565b905092915050565b60006020820190506132916000830184612ddf565b92915050565b600060208201905081810360008301526132b18184612e6f565b905092915050565b600060208201905081810360008301526132d281612ed9565b9050919050565b600060208201905081810360008301526132f281612efc565b9050919050565b6000602082019050818103600083015261331281612f1f565b9050919050565b6000602082019050818103600083015261333281612f42565b9050919050565b6000602082019050818103600083015261335281612f65565b9050919050565b6000602082019050818103600083015261337281612f88565b9050919050565b6000602082019050818103600083015261339281612fab565b9050919050565b600060208201905081810360008301526133b281612fce565b9050919050565b600060208201905081810360008301526133d281612ff1565b9050919050565b600060208201905081810360008301526133f281613014565b9050919050565b6000602082019050818103600083015261341281613037565b9050919050565b600060208201905081810360008301526134328161305a565b9050919050565b600060208201905081810360008301526134528161307d565b9050919050565b60006020820190508181036000830152613472816130a0565b9050919050565b60006020820190508181036000830152613492816130c3565b9050919050565b600060208201905081810360008301526134b2816130e6565b9050919050565b600060208201905081810360008301526134d281613109565b9050919050565b60006020820190506134ee600083018461319e565b92915050565b6000608082019050613509600083018761319e565b818103602083015261351b8186612e6f565b905061352a6040830185612e27565b6135376060830184612cee565b95945050505050565b6000608082019050613555600083018761319e565b81810360208301526135678186612e6f565b9050613576604083018561319e565b6135836060830184612cee565b95945050505050565b60006135966135a7565b90506135a2828261386f565b919050565b6000604051905090565b600067ffffffffffffffff8211156135cc576135cb613947565b5b6135d582613976565b9050602081019050919050565b600067ffffffffffffffff8211156135fd576135fc613947565b5b61360682613976565b9050602081019050919050565b6000819050602082019050919050565b6000819050602082019050919050565b600081519050919050565b600081519050919050565b600081519050919050565b600081519050919050565b6000602082019050919050565b6000602082019050919050565b600082825260208201905092915050565b600082825260208201905092915050565b600082825260208201905092915050565b600082825260208201905092915050565b600082825260208201905092915050565b600081905092915050565b60006136e4826137df565b91506136ef836137df565b9250827fffffffffffffffffffffffffffffffffffffffffffffffffffffffffffffffff03821115613724576137236138e9565b5b828201905092915050565b600061373a826137df565b9150613745836137df565b925082821015613758576137576138e9565b5b828203905092915050565b600061376e826137bf565b9050919050565b6000613780826137bf565b9050919050565b60008115159050919050565b60007fffffffff0000000000000000000000000000000000000000000000000000000082169050919050565b600073ffffffffffffffffffffffffffffffffffffffff82169050919050565b6000819050919050565b60006137f4826137df565b9050919050565b82818337600083830152505050565b60005b8381101561382857808201518184015260208101905061380d565b83811115613837576000848401525b50505050565b6000600282049050600182168061385557607f821691505b6020821081141561386957613868613918565b5b50919050565b61387882613976565b810181811067ffffffffffffffff8211171561389757613896613947565b5b80604052505050565b60006138ab826137df565b91507fffffffffffffffffffffffffffffffffffffffffffffffffffffffffffffffff8214156138de576138dd6138e9565b5b600182019050919050565b7f4e487b7100000000000000000000000000000000000000000000000000000000600052601160045260246000fd5b7f4e487b7100000000000000000000000000000000000000000000000000000000600052602260045260246000fd5b7f4e487b7100000000000000000000000000000000000000000000000000000000600052604160045260246000fd5b6000601f19601f8301169050919050565b7f4552433732313a2063616c6c6572206973206e6f7420746f6b656e206f776e6560008201527f72206f7220617070726f76656400000000000000000000000000000000000000602082015250565b7f4552433732313a207472616e7366657220746f206e6f6e20455243373231526560008201527f63656976657220696d706c656d656e7465720000000000000000000000000000602082015250565b7f4552433732313a207472616e736665722066726f6d20696e636f72726563742060008201527f6f776e6572000000000000000000000000000000000000000000000000000000602082015250565b7f4552433732313a20746f6b656e20616c7265616479206d696e74656400000000600082015250565b7f4552433732313a207472616e7366657220746f20746865207a65726f2061646460008201527f7265737300000000000000000000000000000000000000000000000000000000602082015250565b7f4552433732313a20617070726f766520746f2063616c6c657200000000000000600082015250565b7f4552433732313a2061646472657373207a65726f206973206e6f74206120766160008201527f6c6964206f776e65720000000000000000000000000000000000000000000000602082015250565b7f45524337323155524953746f726167653a2055524920736574206f66206e6f6e60008201527f6578697374656e7420746f6b656e000000000000000000000000000000000000602082015250565b7f496e76616c696420706f73742069640000000000000000000000000000000000600082015250565b7f4552433732313a206d696e7420746f20746865207a65726f2061646472657373600082015250565b7f43616e6e6f74207061737320616e20656d707479206861736800000000000000600082015250565b7f4552433732313a20696e76616c696420746f6b656e2049440000000000000000600082015250565b7f4552433732313a20617070726f76616c20746f2063757272656e74206f776e6560008201527f7200000000000000000000000000000000000000000000000000000000000000602082015250565b7f4d757374206f776e20746865206e667420796f752077616e7420746f2073656c60008201527f65637420617320796f75722070726f66696c6500000000000000000000000000602082015250565b7f43616e6e6f742074697020796f7572206f776e20706f73740000000000000000600082015250565b7f4552433732313a20617070726f76652063616c6c6572206973206e6f7420746f60008201527f6b656e206f776e6572206f7220617070726f76656420666f7220616c6c000000602082015250565b7f4d757374206f776e206120646563656e74726174776974746572206e6674207460008201527f6f20706f73740000000000000000000000000000000000000000000000000000602082015250565b613dc581613763565b8114613dd057600080fd5b50565b613ddc81613787565b8114613de757600080fd5b50565b613df381613793565b8114613dfe57600080fd5b50565b613e0a816137df565b8114613e1557600080fd5b5056fea26469706673582212204ea0684e0d661ab82f6327597f2f6257f487a62c0bf97ee9261a0e8c2ef1925a64736f6c63430008040033",
  "linkReferences": {},
  "deployedLinkReferences": {}
}